:020000040000fa
:080000000002040000000000f2
:020000040000fa
:04000800a80200004a
:020000040000fa
:04000c00a802000046
:020000040000fa
:04001000a802000042
:020000040000fa
:04001400a80200003e
:020000040000fa
:04001800a80200003a
:020000040000fa
:04001c00a802000036
:020000040000fa
:04002000a802000032
:020000040000fa
:04002400a80200002e
:020000040000fa
:04002800a80200002a
:020000040000fa
:04002c00a802000026
:020000040000fa
:04003000a802000022
:020000040000fa
:04003400381c000074
:020000040000fa
:04003800a80200001a
:020000040000fa
:04003c00a802000016
:020000040000fa
:04004000a802000012
:020000040000fa
:04004400a80200000e
:020000040000fa
:04004800a80200000a
:020000040000fa
:04004c00a802000006
:020000040000fa
:04005000a802000002
:020000040000fa
:04005400801c00000c
:020000040000fa
:04005800a61c0000e2
:020000040000fa
:04005c00a8020000f6
:020000040000fa
:04006000a8020000f2
:020000040000fa
:04006400a8020000ee
:020000040000fa
:04006800a8020000ea
:020000040000fa
:04006c00a8020000e6
:020000040000fa
:04007000a8020000e2
:020000040000fa
:04007400a8020000de
:020000040000fa
:04007800a8020000da
:020000040000fa
:04007c00a8020000d6
:020000040000fa
:04008000a8020000d2
:020000040000fa
:04008400a8020000ce
:020000040000fa
:04008800a8020000ca
:020000040000fa
:04008c00a8020000c6
:020000040000fa
:04009000a8020000c2
:020000040000fa
:04009400a8020000be
:020000040000fa
:04009800a8020000ba
:020000040000fa
:04009c00a8020000b6
:020000040000fa
:0400a000a8020000b2
:020000040000fa
:0400a400a8020000ae
:020000040000fa
:0400a800a8020000aa
:020000040000fa
:0400ac00a8020000a6
:020000040000fa
:0400b000a8020000a2
:020000040000fa
:0400b400a80200009e
:020000040000fa
:0400b800a80200009a
:020000040000fa
:0400bc00a802000096
:020000040000fa
:0400c000a802000092
:020000040000fa
:0400c400a80200008e
:020000040000fa
:0400c800a80200008a
:020000040000fa
:0400cc00a802000086
:020000040000fa
:0400d000a802000082
:020000040000fa
:0400d400a80200007e
:020000040000fa
:0400d800a80200007a
:020000040000fa
:0400dc00a802000076
:020000040000fa
:0400e000a802000072
:020000040000fa
:0400e400a80200006e
:020000040000fa
:0400e800a80200006a
:020000040000fa
:0400ec00a802000066
:020000040000fa
:0400f000a802000062
:020000040000fa
:0400f400a80200005e
:020000040000fa
:0400f800a80200005a
:020000040000fa
:0400fc00a802000056
:020000040000fa
:04010000a802000051
:020000040000fa
:04010400a80200004d
:020000040000fa
:04010800a802000049
:020000040000fa
:04010c00a802000045
:020000040000fa
:04011000a802000041
:020000040000fa
:04011400a80200003d
:020000040000fa
:04011800a802000039
:020000040000fa
:04011c00a802000035
:020000040000fa
:04012000a802000031
:020000040000fa
:04012400a80200002d
:020000040000fa
:04012800a802000029
:020000040000fa
:04012c00a802000025
:020000040000fa
:04013000a802000021
:020000040000fa
:04013400a80200001d
:020000040000fa
:04013800a802000019
:020000040000fa
:04013c00a802000015
:020000040000fa
:04014000a802000011
:020000040000fa
:04014400a80200000d
:020000040000fa
:04014800a802000009
:020000040000fa
:04014c00a802000005
:020000040000fa
:04015000a802000001
:020000040000fa
:04015400a8020000fd
:020000040000fa
:04015800a8020000f9
:020000040000fa
:04015c00a8020000f5
:020000040000fa
:04016000a8020000f1
:020000040000fa
:04016400a8020000ed
:020000040000fa
:04020800a802000048
:020000040000fa
:04020c00a802000044
:020000040000fa
:04021000a802000040
:020000040000fa
:04021400a80200003c
:020000040000fa
:04021800a802000038
:020000040000fa
:04021c00a802000034
:020000040000fa
:04022000a802000030
:020000040000fa
:04022400a80200002c
:020000040000fa
:04022800a802000028
:020000040000fa
:04022c00a802000024
:020000040000fa
:04023000a802000020
:020000040000fa
:04023400a80200001c
:020000040000fa
:04023800a802000018
:020000040000fa
:04023c00a802000014
:020000040000fa
:04024000a802000010
:020000040000fa
:04024400a80200000c
:020000040000fa
:04024800a802000008
:020000040000fa
:04024c00a802000004
:020000040000fa
:04025000a802000000
:020000040000fa
:04025400a8020000fc
:020000040000fa
:04025800a8020000f8
:020000040000fa
:04025c00a8020000f4
:020000040000fa
:04026000a8020000f0
:020000040000fa
:04026400a8020000ec
:020000040000fa
:04026800a8020000e8
:020000040000fa
:04026c00a8020000e4
:020000040000fa
:04027000a8020000e0
:020000040000fa
:04027400a8020000dc
:020000040000fa
:04027800a8020000d8
:020000040000fa
:04027c00a8020000d4
:020000040000fa
:04028000a8020000d0
:020000040000fa
:04028400a8020000cc
:020000040000fa
:04028800a8020000c8
:020000040000fa
:04028c00a8020000c4
:020000040000fa
:04029000a8020000c0
:020000040000fa
:04029400a8020000bc
:020000040000fa
:04029800a8020000b8
:020000040000fa
:04029c00a8020000b4
:020000040000fa
:0402a000a8020000b0
:020000040000fa
:0402a400a8020000ac
:020000040000fa
:0402a800a8020000a8
:020000040000fa
:0402ac00a8020000a4
:020000040000fa
:0402b000a8020000a0
:020000040000fa
:0402b400a80200009c
:020000040000fa
:0402b800a802000098
:020000040000fa
:0402bc00a802000094
:020000040000fa
:0402c000a802000090
:020000040000fa
:0402c400a80200008c
:020000040000fa
:0402c800a802000088
:020000040000fa
:0402cc00a802000084
:020000040000fa
:0402d000a802000080
:020000040000fa
:0402d400a80200007c
:020000040000fa
:0402d800a802000078
:020000040000fa
:0402dc00a802000074
:020000040000fa
:0402e000a802000070
:020000040000fa
:0402e400a80200006c
:020000040000fa
:0402e800a802000068
:020000040000fa
:0402ec00a802000064
:020000040000fa
:0402f000a802000060
:020000040000fa
:0402f400a80200005c
:020000040000fa
:0402f800a802000058
:020000040000fa
:0402fc00a802000054
:020000040000fa
:04030000a80200004f
:020000040000fa
:04030400a80200004b
:020000040000fa
:04030800a802000047
:020000040000fa
:04030c00a802000043
:020000040000fa
:04031000a80200003f
:020000040000fa
:04031400a80200003b
:020000040000fa
:04031800a802000037
:020000040000fa
:04031c00a802000033
:020000040000fa
:04032000a80200002f
:020000040000fa
:04032400a80200002b
:020000040000fa
:04032800a802000027
:020000040000fa
:04032c00a802000023
:020000040000fa
:04033000a80200001f
:020000040000fa
:04033400a80200001b
:020000040000fa
:04033800a802000017
:020000040000fa
:04033c00a802000013
:020000040000fa
:04034000a80200000f
:020000040000fa
:04034400a80200000b
:020000040000fa
:04034800a802000007
:020000040000fa
:04034c00a802000003
:020000040000fa
:04035000a8020000ff
:020000040000fa
:04035400a8020000fb
:020000040000fa
:04035800a8020000f7
:020000040000fa
:04035c00a8020000f3
:020000040000fa
:04036000a8020000ef
:020000040000fa
:04036400a8020000eb
:020000040000fa
:10040000efd220000e7f24000e01880000000000c3
:10041000000020000000e000020032000001200087
:10042000200288000c000700c0cc21000100200041
:1004300011000700000020000000e0000200320070
:100440000000020000000000e619020000000000a9
:100450000040da000000fe004440a9000000200037
:100460000000e0000300320000002000a00188002e
:100470004440a80000000600910188008000780038
:100480000000eb0015003700e280400032a0b4000d
:100490009101ba00e280400032a0b4009102ba009b
:1004a000e280400032a0b4000002eb00472bde00e7
:1004b000f507b200602ce10004003a000059eb009f
:1004c0008301e900fdff3e00040037006128e100e0
:1004d000010032000082eb000b00070011c3ba00dc
:1004e0001101ba000604e00003003a000200e00037
:1004f000e5ff3a0000000600f607b200960188000a
:1005000082007800f5ff37003159ba008301e90015
:100510000c0032002159ba008301e90008003200c2
:100520000400e00003003a00e280400032a0b40082
:10053000f5ff370011d9ba008301e900faff3a004c
:100540008100e800e180400032a0b4000000060015
:100550000040da000000fe0003f0a200889fbe0009
:100560008a9fbe008c1f78001d0107002401330004
:100570006450e1004f0032006420e100520032007c
:1005800003826c0007003b000905d0000306d00081
:10059000820f54000c065d00020039000200320098
:1005a00089017800030678008582550004003d002b
:1005b0000003fd008103fd008502ea008b854200f7
:1005c000840f720002003b0060001000e080180001
:1005d0006011b8000005eb007a28e1000a0039003c
:1005e00006007800c75ddd00f707b2008780750060
:1005f0002d003700828171000a01780061056000da
:100600008180d1000080d3008502e900f9ff3b0022
:10061000060440008784480002003b006004140088
:10062000e0841c000988a300070032008a81710061
:1006300082817100610164008904d1000884d300c3
:100640008b05e800170037000978a30013003a0073
:100650000b00e000130034008b05e900080444009f
:1006600089844c000a4474000978a3000d003a0004
:100670000b00e000070034008b05e900080444008b
:1006800089844c0001003a000b0020000978a30087
:10069000f7ff32000001eb00020037008281710099
:1006a0000a017800930007000cf0a70001f0a000f9
:1006b000dc0037006420e10002003a00838f6c0008
:1006c000dc0033000801be000200be00d500370088
:1006d000889fbe008a9fbe008c1f7800c000070064
:1006e000c700330003866c006450e1002e00320026
:1006f0006420e100330032006150e1002f0032003d
:100700006120e1003100320085855500eb07b00023
:1007100009002000080420000500370008044400f8
:1007200089844c000a0031000603430087834b0094
:100730000001530081815b00f8ff33000203be001b
:100740000800a0000804440089844c00f6ff39002a
:10075000c639dd0083017300010032001300200060
:100760008904d1000884d3000998a3000500320051
:100770000800a7000300a0008904d1000884d3006a
:100780008b05e8008904d1000884d3000001eb0048
:100790000281d2005700070001f0a1000cf0a70071
:1007a00001f0a0009f0037006420e100a1003200aa
:1007b0000801be000200be00f7ff37006120e10023
:1007c0009c0032006000b800f3ff370000002000fa
:1007d00001f82700f0ff370014002000cc0037009c
:1007e000f4ff2f00ca0037000001be0067000700b9
:1007f0000470a70003f0a1006509b10016003200e3
:100800000d0035006828e10006003500f0ff2f00dc
:10081000f1ff27000300e00013003b000100280067
:100820000000050000004000818048008502e900ca
:10083000fcff3a0008003700f88f420002003c003d
:100840008000eb00000005008100d1000080d30093
:100850008502e800fcff3a000300e00002003b00d4
:1008600060001000e0801800000006000001be00db
:10087000460007000470a70003f0a10003f8a300de
:1008800013003a006509b10010003200090035007c
:100890006928e10002003500010028000000050081
:1008a00000004000818048008502e900fcff3a001a
:1008b00000000600f88f4200050035008100d100dd
:1008c0000080d3008502e800fcff3a00000006002b
:1008d0008000eb00000005004f89de0082017800f7
:1008e000a60037006011b800b400370004002000f3
:1008f0008700370081002000618055000b003d001b
:100900000b00200061fe2f000100e1001d003400fb
:1009100082817100610164008904d1000884d300e0
:100920000000e800faff3a00710020006100640056
:1009300003007000020060000900320061044400fe
:10094000e0844c000988a500050032008b05e80012
:100950006808e10002003a008904d1000884d3004d
:10096000f20f20000258e10005003d00c75ddd00e8
:10097000f907b200898075000800780000000600c1
:100980000bf827008b00780000000500c70ade0086
:10099000f107b200f50fb20008003200e1cf4200cb
:1009a000020032000170a00024000500810f7000d9
:1009b000010032000408050044000500810f7000aa
:1009c00002003a00140005008502e9000000400022
:1009d00081c04800fcff3b000170a000240005001e
:1009e0000004be00e9ff07000003be000405be00ce
:1009f0000200be00e5ff0700844f750000000600fe
:100a00000200be006450e100050036006420e100f1
:100a1000020036000968a30001003a000800be0089
:100a20000160a0004f0678004f05be004f04be00d5
:100a300000000600f0ff2f00f1ff2700f9ff37004c
:100a4000889fbe008a9fbe008c1f7800e4ff0700cd
:100a5000ebff330003866c006450e1002400320099
:100a60006420e100270032006150e10022003200e2
:100a70006120e100210032008b854200eb07b100cc
:100a80000134b800003ab8000804420089844a00e2
:100a9000013ab8000030b8008880400009014a00df
:100aa000040033000000400081804800020149003a
:100ab0008b05e900c909dd008301700001003200e7
:100ac00013002000c814de004814dd004709de00d2
:100ad0001200b200c808de000884700085ff07001d
:100ae00001f0a1000cf0a70001f0a000cdff37003d
:100af0006120e100cfff32000801be000200be000d
:100b0000f7ff37006150e100fcff3a00c9ff3700f2
:100b1000889fbe008a9fbe00841f7800b0ff070038
:100b20004f00780011003300f0ff2f00838f6c001e
:100b300006003b00040565000a00a7000800370016
:100b400009f0a6001000200008003700820f5400b2
:100b5000838f5c00030039001000200001003e007c
:100b60000000200009f0a7000000ea004f05be00c9
:100b70004f04be000000e00000000600881f78005f
:100b8000030478000300e00007003d00600010004f
:100b9000e080180060011900e081190002003b00ac
:100ba00001f02d00030037000400070008f0a70043
:100bb00001f0a0004f04780000000600889fbe00ee
:100bc0008a9fbe00008270000402710004827100de
:100bd000260032000004be000200be006011b80012
:100be0006b092000950220000182cf000a00390025
:100bf0000541b1000082cf00070039000541b10076
:100c00000982cf00040039000541b1000882cf00fd
:100c1000010039000541b1000542520012003200c6
:100c20000a003b0082817100610164008100d100f3
:100c30000080d3008984d3000884d3008b05e800aa
:100c40000442e800f7ff3a000700370008044400b8
:100c500089844c0000004800818048008b05e90031
:100c60000442e900f9ff3a0022ff07004f05be00e9
:080c70004f04be000000060065
:020000040000fa
:100c78000400fa00006c2000000f78000000eb0070
:100c8800100798004116800070ff2f000080600058
:100c980040168800401680000020a00040168800fa
:100ca8002135800000fe2f00008060000010a000a9
:100cb800203588009e0078006380400031c0b30072
:100cc800014878001e0090000020a000100798003e
:100cd80041168000f07f2f000080600040168800d9
:100ce8009e0078006b80400021c1b3000148780065
:100cf80041168000f0bf2f00008060004016880079
:100d08009e0078006a80400031c1b3000148780035
:100d18004116800000042000010070004016880081
:100d2800e134800000fe2f00008060006000b30006
:100d3800e03488009e00900000042000010070004c
:100d4800100798004116800000082000010070007c
:100d580040168800e1348000f00f2e00808060008b
:100d68000070200001007000e03488009e009000b0
:100d7800000820000100700010079800411680004c
:100d88000010200001007000401688000135800026
:100d980000fe2f00008060000030a00000358800b1
:100da8009e009000001020000100700010079800bd
:100db80041168000002020000100700040168800c5
:100dc80001358000f00f2e00808060000090200028
:100dd80001007000003588009e009000002020006f
:100de8000100700010079800411680001e00900056
:100df80000806000401688000080fa0000000600ad
:100e08000000fa002022ef002222ef002822ef0043
:100e18002062a80070a7a900500520004011880092
:100e2800001180000010a0000020a0000011880020
:100e38002002a9009580a800500580000000a000ad
:100e48000010a1000020a000500588009560a800af
:100e58004005800000c0a00000d0a10000e0a00074
:100e6800400588008560a9002162a90023a2a80086
:100e780023e2a90021e2a8002342a8000011800073
:100e88000080a1000090a1000011880000e2240069
:100e980001002000d20a07000080fa0000000600c6
:100ea8000000fa008221ef008021ef008421ef008a
:100eb8008821ef008621ef008a21ef001021ef0042
:100ec800100020000040880000fa20006008880018
:100ed800800880000040a1000050a1008008880020
:100ee800004080008000eb007cfe07000001be008f
:100ef80000002000a1572400f3fd070059fe070059
:100f080000007800600888007207a900200c8000a3
:100f18000000a1000010a0000020a000200c880004
:100f28008461a90011e1a8007227a900500c800073
:100f38000000a1000010a0000020a000500c8800b4
:100f48008a61a90011e1a8008e21ef008c21ef0031
:100f58009021ef009421ef009221ef009621ef00fd
:100f68001221ef00100020001040880000fa200035
:100f780060088800900880000040a1000050a1008f
:100f880090088800104080008000eb0053fe0700a6
:100f98000001be0000002000a1572400cafd070080
:100fa80030fe070000007800700888000080fa0012
:100fb800000006000400fa00881f7800004f78003f
:100fc80011479800120798001e407800e14f500022
:100fd8000f003a001e4090000004e00005003200b7
:100fe8001e00900000f0a7000000ea00000c880036
:100ff80041003700610880001e00900000f0a70043
:101008000000ea0000805000000c88003a00370019
:101018001e407800e24f50000f003a001e4090003a
:101028000004e000050032001e00900000f0a70058
:101038000000ea00300c88002f00370061088000ab
:101048001e00900000f0a7000000ea000080500099
:10105800300c8800280037001e407800e34f50000d
:1010680013003a001e4090000004e0000700320020
:101078001e0090008000eb0018fe0700f9fd070035
:1010880000007800600c88001b003700780880009a
:101098001e0090008000eb0010fe0700f1fd070025
:1010a8000000780000005400600c8800120037002f
:1010b8001e4090000004e000070032001e0090006f
:1010c8008000eb0005fe0700e6fd07000000780041
:1010d800900c880008003700780880001e009000f7
:1010e8008000eb00fdfd0700defd07000000780032
:1010f80000005400900c88004f0478000080fa002b
:10110800000006000400fa00889fbe008a9fbe0007
:10111800004f780011479800120798001e40780089
:10112800e14f500032003a001e4090000004e000f9
:10113800140032001e0090008000eb00e7fd07005d
:10114800d27b2300635823003bfe07000268290076
:1011580083c1240038fe07000004be000040800060
:101168008000eb00ddfd07000001be000800be00a6
:1011780055fd0700bbfd070000007800000c880043
:10118800b6003700600880008000eb00d3fd070040
:101198000004be001e0090008000eb00cffd070099
:1011a800d27b23006358230023fe0700026829002e
:1011b80083c1240020fe07000005be000040800017
:1011c8008000eb00c5fd07000001be000a00be005c
:1011d8003dfd07000001be000800be00dcfc070062
:1011e800a0fd070000007800000c88009b00370075
:1011f8001e407800e24f500032003a001e40900036
:101208000004e000140032001e0090008000eb0093
:10121800b2fd0700d27b23006358230006fe0700b7
:101228000268290083c1240003fe07000004be00f1
:10123800004080008000eb00a8fd07000001be0010
:101248000800be0020fd070086fd070000007800aa
:10125800300c880081003700600880008000eb00b7
:101268009efd07000004be001e0090008000eb00f9
:101278009afd0700d27b230063582300eefd070088
:101288000268290083c12400ebfd07000005be00a9
:10129800004080008000eb0090fd07000001be00c8
:1012a8000a00be0008fd07000001be000800be00dd
:1012b800a7fc07006bfd070000007800300c8800d1
:1012c800660037001e407800e34f500032003a00b5
:1012d8001e4090000004e000140032001e00900040
:1012e8008000eb007dfd0700d27b230063582300bc
:1012f800d1fd07000268290083c12400cefd070044
:101308000004be00104080008000eb0073fd070061
:101318000001be000800be00ebfc070051fd0700fd
:1013280000007800600c88004c00370070088000ce
:101338008000eb0069fd07000004be001e0090005d
:101348008000eb0065fd0700d27b23006358230073
:10135800b9fd07000268290083c12400b6fd070013
:101368000005be00104080008000eb005bfd070018
:101378000001be000a00be00d3fc07000001be0049
:101388000800be0072fc070036fd07000000780068
:10139800600c8800310037001e4090000004e00017
:1013a800140032001e0090008000eb004bfd070087
:1013b800d27b2300635823009ffd070002682900a1
:1013c80083c124009cfd07000004be00104080007b
:1013d8008000eb0041fd07000001be000800be00d0
:1013e800b9fc07001ffd070000007800900c88007a
:1013f8001a003700700880008000eb0037fd0700f6
:101408000004be001e0090008000eb0033fd0700c2
:10141800d27b23006358230087fd07000268290058
:1014280083c1240084fd07000005be001040800031
:101438008000eb0029fd07000001be000a00be0085
:10144800a1fc07000001be000800be0040fc070028
:1014580004fd070000007800900c88004f05be00ce
:101468004f04be000080fa00000006000000fa00e9
:101478000421ef000021ef000080eb001008880035
:101488001021ef000621ef000080eb0060088800c3
:101498001221ef000a21ef000080eb00700888009d
:1014a8001e21ef001421ef000080eb00d008880017
:1014b8002021ef001821ef000080eb00e0088800f1
:1014c8009460a8002005800000c0a00000d0a10002
:1014d80000e0a100200588008460a90094e0a9002c
:1014e8003005800000c0a10000d0a10000e0a100ec
:1014f8003005880084e0a9009500a9004005800017
:101508000000a1000010a1000020a10040058800f3
:101518008500a9009760a9008005800000c0a1008f
:1015280000d0a10000e0a100800588008760a90024
:101538009780a900900580000000a1000010a1007c
:101548000020a100900588008780a9000080fa008b
:10155800000006000a00fa0040479800514798002a
:1015680032079800430798005e4090000004e000ae
:101578000d003a00f226210033a823003e00900017
:10158800ce0090002cfd07000268290083c12400ca
:1015980029fd070002002000033824004afc070048
:1015a800008fbe00270037005e409000e14f5000da
:1015b80011003a00d27b2300635823003e009000bc
:1015c800ce0090001cfd07000268290083b92400a2
:1015d80019fd070002002000031024003afc070050
:1015e8000001be0000f02f00f1772400d8fb0700af
:1015f800008fbe00130037005e409000e24f50009d
:101608000e003a00f2052700930823003e009000e0
:10161800ce00900008fd07000268290083b9240065
:1016280005fd07000001be0000f02f00f17724003f
:10163800c7fb0700008fbe00020037006000b8003b
:10164800008fbe004e409000e14f50001f003a004e
:101658005e4090000004e00005003a002008800089
:101668000040a0000050a000200888000f003700ac
:101678005e409000e14f500005003a0020088000cd
:101688000040a0000050a100200888000700370093
:101698005e409000e24f500004003a0020088000ad
:1016a8000040a1000050a100200888000021ef00a0
:1016b8001e00be006bfc07000000780010088800c0
:1016c8008460a90005e1a800850037004e4090001d
:1016d800e24f50001e003a005e4090000004e00017
:1016e80005003a00800880000040a0000050a000db
:1016f800800888000f0037005e409000e14f5000de
:1017080005003a00800880000040a0000050a100b9
:1017180080088800070037005e409000e24f5000c4
:1017280004003a00800880000040a1000050a10099
:10173800800888001e00be004afc070000007800f0
:101748003008880084e0a90011e1a800640037008f
:101758004e409000e34f50001e003a005e4090005b
:101768000004e00005003a00900880000040a00056
:101778000050a000900888000f0037005e409000dd
:10178800e14f500005003a00900880000040a0009a
:101798000050a10090088800070037005e409000c4
:1017a800e24f500004003a00900880000040a10079
:1017b8000050a100900888001e00be0029fc070008
:1017c80000007800500888008500a90013e1a800ef
:1017d800430037004e409000e44f50001e003a008e
:1017e8005e4090000004e00005003a00f008800028
:1017f8000040a0000050a000f00888000f0037004b
:101808005e409000e14f500005003a00f00880006b
:101818000040a0000050a100f00888000700370031
:101828005e409000e24f500004003a00f00880004b
:101838000040a1000050a100f00888001e00be0072
:1018480008fc070000007800a00888008760a9004d
:101858001fe1a800220037004e409000e54f5000dd
:101868001e003a005e4090000004e00005003a00c7
:10187800000980000040a0000050a0000009880076
:101888000f0037005e409000e14f500005003a001d
:10189800000980000040a0000050a1000009880055
:1018a800070037005e409000e24f500004003a0005
:1018b800000980000040a1000050a1000009880034
:1018c8001e00be00e7fb070000007800c008880083
:1018d8008780a90021e1a80001003700000000006e
:1018e8000080fa00000006000000fa009b40a900f2
:1018f800000680000080a1000090a10000a0a100c7
:10190800000688008b40a900f0ff2700200f880000
:101918000080eb00300f8800e021ef007147a9003c
:10192800000f80000080a0000090a00000a0a00090
:10193800000f8800e0c1a9009d60a9004006800052
:1019480000c0a10000d0a10000e0a100400688006e
:101958008d60a900f0ff2700a00f88000080eb0031
:10196800b00f8800f021ef0074a7a900800f800055
:101978000080a0000090a00000a0a000800f8800b8
:10198800f0c1a9000080fa00000006000400fa0077
:10199800004f780011079800c1418000800f200097
:1019a8008080600080082000808f500066003a0028
:1019b8001e009000904078001e0090000000e80093
:1019c8001040780080cf500053003a001e0090006d
:1019d8009040780030c5b30080cf50004e003a00e8
:1019e8001e0090000080e800904078001e009000e3
:1019f800630040001040780000c0ea0080cf50002b
:101a080045003a001e0090006400400090407800b5
:101a18001e009000650040001040780000c0ea00f9
:101a280080cf50003c003a001e0090006600400045
:101a3800904078001e009000670040001040780039
:101a480000c0ea0080cf500033003a001e0090002a
:101a580068004000904078001e0090006900400037
:101a68001040780000c0ea0080cf50002a003a00f9
:101a78001e0090006a004000904078001e00900010
:101a88006b0040001040780000c0ea0080cf500092
:101a980021003a001e0090006c0040009040780041
:101aa8001e0090006d0040001040780000c0ea0061
:101ab80080cf500018003a001e0090006e004000d1
:101ac800904078001e0090006f00400010407800a1
:101ad80000c0ea0080cf50000f003a001e009000be
:101ae80070004000904078001e0090007100400097
:101af8001040780080cf500007003a001e00900088
:101b0800700040009040780050c4b30080cf50006f
:101b180001003a003848a800c04180006400600015
:101b28000000e000020032003808a9000100370078
:101b38003808a8003828a800c141800070f02f009c
:101b480000806000c0418800c041800061006000e2
:101b58000000e00007003200c1418000800f200033
:101b6800008060000000e00002003a003808a90088
:101b78001c003700c0418000610060000000e000e8
:101b88000b003a00c0418000620060000000e000e5
:101b980007003200c1418000800f200000806000f3
:101ba8000000e00002003a003828a9000d003700c4
:101bb800c04180004300de007f4060000040e80034
:101bc8007f4060000080fb007f0060004300dd0074
:101bd800c241800071f02f00810061000100700097
:101be800c04188001e407800e14f50000b003a00c9
:101bf800c04180004300de007f4060000080fb00a1
:101c08009e009000008040003111800081407800e3
:101c1800014878008560a9000d0037001e40780053
:101c2800e24f50000a003a00c04180004300de0045
:101c38007f4060000080fb009e0090000080400014
:101c4800b1118000814078000148780087c0a90060
:101c5800c04180004200de00614060000080fb005f
:101c680000f0a7000000ea000000ea004f00de00d4
:101c7800004078000080fa00000006000200fa0028
:101c8800004f78001e407800e94f500003003e00e6
:101c980001c3b3001ecf40000200370071c3b30078
:101ca8001ecf40001e4078000080fa0000000600a9
:101cb8000800fa00881f7800004f78001107980084
:101cc800220798001e0090000000e0000400340085
:101cd8002e009000b1c2b30001487800030037001d
:101ce8002e009000d1c2b300014878001e00900079
:101cf80000f0a7000000ea00100798001e407800d6
:101d0800f04f50003b003a002e0090006400400065
:101d18009e00900081407800efc060000148780084
:101d28002e009000640440002e00900064004000e3
:101d380010407800d1ff0700004c78002e0090007a
:101d4800630040009e009000c488de008140780057
:101d5800efc06000014878002e0090006304400046
:101d68002e0090006300400010407800c3ff070079
:101d7800004c78002e0090000080e8009e00900043
:101d8800c888de0081407800efc060000148780014
:101d98002e0090000084e8002e0090000080e800eb
:101da80010407800b5ff0700004c78002e00900026
:101db8000000e8009e009000cc08de00814078001a
:101dc800014878002e0090000004e8002e009000e2
:101dd8000000e80010407800a8ff0700004c7800d9
:101de8002e0090006500400001c2b3000148780051
:101df800a00037001e407800ea4f50009d003a00ce
:101e08002e0090000000e800300798001e019000a6
:101e18000171220081017800110009000301d80036
:101e28008000fd00814078003e0090000148780065
:101e38002e0090000081e8009e009000803e200067
:101e480080017800110009008300d80080417800e3
:101e58002e0090000000e80090407800600f2000fd
:101e68000088b900000078000040780000c04100f8
:101e7800004978002e009000630140009e00900009
:101e88004006200080017800110009008300d80076
:101e9800804178002e0090000000e8009040780013
:101ea800c00920000088b9000000780000427800ce
:101eb8002e0090000080e80090407800600f20001d
:101ec8000088b90000007800004078000040420017
:101ed80000c04100004978002e00900064014000d5
:101ee8009e009000a00020008001780011000900e9
:101ef8008300d800804178002e0090000000e800a0
:101f0800104078007800b90000007800004278009e
:101f18002e0090000080e80090407800c009200062
:101f28000088b90000007800804278002e009000f8
:101f38006300400090407800600f20000088b900de
:101f4800000078000040780000c0420000404200d5
:101f580000c04100004978002e0090006501400053
:101f68002e0090000080e800104078007800b9004a
:101f780000007800804178002e0090000000e80002
:101f880090407800000f20000088b9000000780019
:101f98000040780080c141002e009000630040009e
:101fa80090407800c00920000088b900000078003f
:101fb800004278002e0090006400400090407800b5
:101fc800600f20000088b900000078000040780009
:101fd8000040420080c041001e0090000040780090
:101fe80000c04000004978002e0090000004e8007e
:101ff8002e0090000000e800104078001fff070046
:10200800004c78002e0090000084e8002e0090001c
:102018000080e8001040780018ff0700004c7800a6
:102028002e009000630440002e00900063004000e2
:102038001040780011ff0700004c78002e00900037
:10204800640440002e0090006400400010407800b6
:102058000aff0700004c78002e009000650440003d
:102068002e009000650040001040780003ff070034
:10207800004c78002e0090006600400001c2b300ba
:10208800014878004f0478000080fa00000006003c
:102098000200fa00889fbe008a1f7800000f7800af
:1020a8001e007800400890001000be006011b800c3
:1020b800c7f907000000e0000c003a006000b80013
:1020c80040408800514088006000b80060408800a7
:1020d800714088006000b800804088009140880006
:1020e8006000b800a0408800b14088001e00780059
:1020f800500890001000be006011b800b4f9070045
:102108000000e0000c003a006000b800c040880001
:10211800d14088006000b800e0408800f1408800a5
:102128006000b80000418800114188006000b800d4
:1021380020418800314188001e007800200090006e
:102148001002be001e007800400890001000be007b
:102158000001be000400be00fdf8070018c0b3006f
:102168003233230033f723009bf907000000e00017
:1021780001003c000044eb000804e00012003200bb
:102188001e007800200090001002be001e0078009b
:10219800400890001000be000001be000400be0010
:1021a800ebf8070018c0b3006266260063f8230046
:1021b80087f907000000e000010035000044eb004b
:1021c8000804e00007003a001e007800400890006c
:1021d8001000be006011b8007df907000000e000a3
:1021e80041003a001e007800200090001002be0056
:1021f8001e007800100078001000be000001be002c
:102208000400be00b7f907000000e0003600320005
:102218001e007800100078001000be0018c0b3003f
:102228006011b8006cf907000000e00001003c00f4
:102238000044eb000804e0000a0032001e007800a9
:10224800200490001e007800200090001000be00be
:102258000200200003f82300bef80700008cbe002f
:10226800090037001e007800200490001e00780046
:10227800200090001000be000200200003f8230098
:10228800b3f80700008cbe001e0078002000900004
:102298001000be000002be0005f0a1001e0078007c
:1022a800100078001000be0001f0a10018c0b300b3
:1022b8000001be000400be0047f907000000e0006e
:1022c80001003c000044eb000804e0000600320076
:1022d8001e007800200190001e0078001000780091
:1022e8001000be000089be001e007800300090007b
:1022f8001002be001e007800500890001000be00ba
:102308000001be000400be0091f8070018c0b30029
:102318003233230033f723002ff907000000e000d1
:1023280001003c000044eb000804e0001200320009
:102338001e007800300090001002be001e007800d9
:10234800500890001000be000001be000400be004e
:102358007ff8070018c0b3006266260063f8230000
:102368001bf907000000e000010035000044eb0005
:102378000804e00007003a001e00780050089000aa
:102388001000be006011b80011f907000000e0005d
:1023980041003a001e007800300090001002be0094
:1023a8001e007800100090001000be000001be0062
:1023b8000400be004bf907000000e00036003200c0
:1023c8001e007800100090001000be0018c0b30076
:1023d8006011b80000f907000000e00001003c00af
:1023e8000044eb000804e0000a0032001e007800f8
:1023f800300490001e007800300090001000be00ed
:102408000200200003f8230052f80700008cbe00e9
:10241800090037001e007800300490001e00780084
:10242800300090001000be000200200003f82300d6
:1024380047f80700008cbe001e00780030009000ae
:102448001000be000002be0005f0a1001e007800ca
:10245800100090001000be0001f0a10018c0b300e9
:102468000001be000400be00dbf807000000e00029
:1024780001003c000044eb000804e00006003200c4
:102488001e007800300190001e00780010009000b7
:102498001000be000089be001e00780040089000b1
:1024a8001000be00020020006349240062f9070002
:1024b80040418800514188001e0078005008900073
:1024c8001000be0002002000634924005af90700ea
:1024d80060418800714188001e007800200090004b
:1024e8001000be00020020006349240052f90700d2
:1024f80080418800914188001e00780010009000fb
:102508001000be0002002000634924004af90700b9
:10251800a0418800b1418800210f800010002800e8
:1025280000804000cf80de00e9f807000002be000e
:1025380040418000514180000001be000400be00ff
:1025480004f8070040418800514188001e007800c7
:10255800400c90004041800051418000e24027003b
:10256800a3a5230034f90700008cbe00404080007a
:10257800514080006040880071408800844180009c
:102588009541800040418000514180000001be001b
:102598000400be00eef70700404088005140880064
:1025a8004040800051408000e2332c00e392230039
:1025b80021f907000002be008040800091408000a1
:1025c8000001be000400be00e2f70700804088005a
:1025d8009140880044408000554080006040800061
:1025e800714080000001be000400be00d8f707005b
:1025f800e2332c00e392230033f80700a040880060
:10260800b1408800a10f8000100028000080400021
:10261800cf80de00aef807000002be0060418000f7
:10262800714180000001be000400be00c9f7070028
:1026380060418800714188001e007800500c9000ad
:102648006041800071418000e2402700a3a523007b
:10265800f9f80700008cbe00c0408000d14080001f
:10266800e0408800f1408800a4418000b541800026
:1026780060418000714180000001be000400be007e
:10268800b3f70700c0408800d1408800c0408000f0
:10269800d1408000e2332c00e3922300e6f80700e3
:1026a8000002be0000418000114180000001be0010
:1026b8000400be00a7f70700004188001141880008
:1026c800c4408000d5408000e0408000f140800098
:1026d8000001be000400be009df70700e2332c0095
:1026e800e3922300f8f70700204188003141880071
:1026f8001e007800200d90001e0078004000900019
:102708001002be0040408000514080000001be0021
:102718000400be00c8f807000004be001e007800d0
:10272800500090001002be00804080009140800060
:102738000001be000400be00bff807000001be0093
:102748000800be0083f707000004be001e007800e2
:10275800600090001002be00a0408000b1408000e0
:102768000001be000400be00b3f807000001be006f
:102778000800be0077f70700008dbe001e00780035
:10278800300c90001e007800700090001002be000f
:10279800c0408000d14080000001be000400be009f
:1027a800a5f80700008cbe001e00780020089000e5
:1027b8001000be0018c0b3006011b80006f807008a
:1027c8000000e00001003c000044eb000804e000c9
:1027d800160032001e007800200890001004be0089
:1027e800600880008000eb003cf807001ac0b300c6
:1027f8000001be000800be00f7f707000000e00077
:1028080001003c000045eb000a04e000070032002c
:102818001e007800200c9000600880008000eb000b
:102828002ef80700008cbe00230037001e00780039
:10283800200890001000be0018c0b3006011b80056
:10284800e3f707000000e000010035000044eb005a
:102858000804e000180032001e00780020089000ec
:102868001000be000004be0009f0a200600880004d
:102878008000eb0019f807001ac0b3000001be0081
:102888000800be00d4f707000000e00001003c008b
:102898000045eb000a04e000070032001e00780043
:1028a800200c9000600880008000eb000bf8070007
:1028b80001f0a200008cbe001e00780030089000d5
:1028c8001000be0018c0b3006011b800c2f70700be
:1028d8000000e00001003c000044eb000804e000b8
:1028e800160032001e007800300890001004be0068
:1028f800600880008000eb00f8f707001ac0b300fa
:102908000001be000800be00b3f707000000e000a9
:1029180001003c000045eb000a04e000070032001b
:102928001e007800300c9000600880008000eb00ea
:10293800eaf70700008cbe00230037001e0078006d
:10294800300890001000be0018c0b3006011b80035
:102958009ff707000000e000010035000044eb008d
:102968000804e000180032001e00780030089000cb
:102978001000be000004be0009f0a200600880003c
:102988008000eb00d5f707001ac0b3000001be00b5
:102998000800be0090f707000000e00001003c00be
:1029a8000045eb000a04e000070032001e00780032
:1029b800300c9000600880008000eb00c7f707002b
:1029c80001f0a200008cbe001e00780020089000d4
:1029d8001000be0001f0a100a2f707000000780077
:1029e800000178008040eb0010c0b30071f90700c7
:1029f8001e007800300890001000be0001f0a10011
:102a080098f7070000007800000178008040eb008c
:102a180020c0b30067f907001e0078002008900066
:102a28001000be006011b80069f707000000e00060
:102a380003003a00cdc2a900cde2a900100037007a
:102a48001e007800200890001000be0018c0b300d7
:102a58006011b80060f707000000e00001003c00ca
:102a68000044eb000804e00003003200cdc2a900d6
:102a7800cde2a80002003700cdc2a800cde2a9002f
:102a88001e007800300890001000be006011b800e9
:102a98004ff707000000e00003003a00cd82a900cc
:102aa800cda2a900100037001e0078003008900061
:102ab8001000be0018c0b3006011b80046f7070048
:102ac8000000e00001003c000044eb000804e000c6
:102ad80003003200cd82a900cda2a8000200370071
:102ae800cd82a800cda2a900f0ff2700200f880002
:102af800f0ff2700a00f88004f0578004f04be00a4
:102b08000080fa00000006000200fa00004f78007a
:102b1800cca2a9001e4178001184200082487800c8
:102b28001e407800e34f500025003a00f0002000d6
:102b38000016880070002000f04188008045800061
:102b48000000a0000010a10080458800a046800079
:102b58000000a0000010a100a0468800c047800027
:102b68000000a0000010a100c0478800e0488000d5
:102b78000000a0000010a100e0488800004a800082
:102b88000000a1000010a000004a8800204b80002f
:102b98000000a1000010a000204b8800404c8000dd
:102ba8000000a1000010a000404c88001016800012
:102bb800004078006f40600040e8b7001f00370011
:102bc8001e407800e24f50000d003a00f00020004f
:102bd8000016880010002000f0418800604d800039
:102be8000000a0000010a100604d880010168000b1
:102bf800004078006f40600040e8b7000f003700e1
:102c08001e4078000004e0000c003a00f0002000ac
:102c18000016880010002000f0418800804e8000d7
:102c28000000a0000010a100804e8800101680004f
:102c3800004078006f40600040e8b700cca2a900cf
:102c48003a08a9003a28a9003a48a9003a68a90010
:102c58008580a9009580a90022a2a8000080fa001a
:102c6800000006000200fa0001842000914078006c
:102c780060842000014878000040eb00004f780095
:102c88000f0037001e80fb000001e8003cc8bf00b1
:102c98008080fb009e81fb00400220000088b90074
:102ca8000000780083004000a086200000804000db
:102cb8009040780060842000017079001e4fe80081
:102cc8003cc8bf008080fb00400220000088b9009b
:102cd800000078000102200080804000a0862000cb
:102ce80000804000104078009e4f5000e5ff3e00f5
:102cf800cca2a8003a08a8003a28a9003a48a90096
:102d08003a68a9008580a9009580a80022a2a90098
:102d18008580a90060842000104078000080fb00b6
:102d28002011880010c0b3003de8b7000080fa0009
:102d3800000006000200fa000000eb00000f780017
:102d48008560a90010118000620060000000e000aa
:102d58000300320021e2a90021e2a800f0003700b8
:102d680031118000010f7800001020001e00600063
:102d78000000e000050032004268ef003a08a900b0
:102d88003a28a9003a48a9003a68a900f00f20009b
:102d98001e0f600087e0a9009e007800a11188003e
:102da80042c8bf000004e0001d003a00d041800086
:102db8006f0060000000e00019003a0040c8bf0042
:102dc8000080fb009e0f500009003a00cca2a90029
:102dd8003a08a9003a28a8003a48a9003a68a90080
:102de8008580a9009580a90022a2a900c800370003
:102df800cca2a9003a08a9003a28a9003a48a90093
:102e08003a68a9008580a9009580a90022a2a80097
:102e18004268ef000000eb00000f7800c0003700a8
:102e2800d04180006f006000e20f5000b8003a0007
:102e380042c8bf00e14f500026003a001e0078004b
:102e4800ff0f50000d003e00cca2a9003a08a900cf
:102e58003a28a8003a48a9003a68a9008580a9003c
:102e68009580a90022a2a9001e00780000407800e1
:102e78003ce8b70022a2a900a5003700cca2a80010
:102e88003a08a8003a28a8003a48a9003a68a900d0
:102e98008580a9009580a80022a2a90022a2a800e6
:102ea800cca2a8003a08a8003a28a8003a48a900e5
:102eb8003a68a9008580a9009580a80022a2a900e7
:102ec8008580a90050012000201188003d68ef008e
:102ed8008f00370042c8bf00e24f500031003a006f
:102ee8003cc8bf008080fb001e00780000407800ce
:102ef800004178000274a100400220000088b90057
:102f080080007800a08820000080400002487800f7
:102f1800000820001e0060000000e00014003200dd
:102f28003cc8bf008080fb00400220000088b90038
:102f380080007800c0882000808040001100780060
:102f48000000a0000010a10080087800cca2a90011
:102f58003a08a9003a28a8003a48a9003a68a900fe
:102f68008580a9009580a90022a2a90068003700e1
:102f78003cc8bf008080fb00400220000088b900e8
:102f880080007800c0882000808040001100780010
:102f98000000a1000010a0008008780031ff0700a1
:102fa8005b00370042c8bf00e34f500024003a00de
:102fb8003cc8bf008080fb00400220000088b900a8
:102fc800000078002102200080804000a0862000b8
:102fd800008040001000780063406000e24f50001d
:102fe80017003a001e007800e60f500014003a005f
:102ff800cca2a9003a08a9003a28a9003a48a90091
:103008003a68a9008580a9009580a90022a2a80095
:103018004268ef003cc8bf008080fb0040022000ef
:103028000088b90080007800c088200080804000b7
:10303800110078000020a0008008780038003700d0
:10304800cca2a9003a08a9003a28a8003a48a90041
:103058003a68a9008580a9009580a90022a2a90044
:103068003cc8bf008080fb0042c8bf000080fb0056
:10307800e30150001e007800004178004002200063
:103088000088b9000000780083004000a086200076
:10309800008040000248780042c8bf000081fb0061
:1030a8003cc8bf008080fb00400220000088b900b7
:1030b800000078000102200080804000a0862000e7
:1030c80000804000104078000080fb000080e8008d
:1030d800800f51000e003a00cca2a8003a08a800c0
:1030e8003a28a8003a48a9003a68a9008580a900aa
:1030f8009580a80022a2a9008580a9006000200070
:10310800201188003d68ef004268ef000400370096
:1031180042c8bf000040e80042e8b70000000000d5
:103128000080fa00000006000000fa008580a9006f
:103138003dc8bf000004e00004003a00d041800010
:103148006f0060000000e00004003200d041800001
:103158006f006000e30f500009003a00cca2a900fc
:103168003a08a9003a28a9003a48a9003a68a900eb
:103178008580a9009580a90022a2a8003a003700fe
:103188003dc8bf000081fb003cc8bf008080fb0039
:10319800400220000088b9000000780001022000e9
:1031a80080804000a0862000008040001040780009
:1031b8000080fb000000e800800f510017003a0073
:1031c8003cc8bf008080fb00400220000088b90096
:1031d800000078002102200080804000a0862000a6
:1031e800008040001000780063406000e24f50000b
:1031f8000a003a003d68ef00cca2a9003a08a900ed
:103208003a28a8003a48a9003a68a9008580a90088
:103218009580a90022a2a90013003700cca2a8001b
:103228003a08a8003a28a9003a48a9003a68a9002b
:103238008580a9009580a80022a2a9008580a90000
:103248003dc8bf000080fb00618420006140780019
:103258000080fb00201188003dc8bf000040e80046
:103268003de8b700000000000080fa0000000600fa
:103278000000fa00208b200090688800208b200036
:1032880064004000a0688800208b2000680040008f
:10329800b0688800608d2000c0688800608d2000bc
:1032a80064004000d0688800608d200068004000fd
:1032b800e0688800e088200050688800e0882000e6
:1032c8006400400060688800e09120007068880011
:1032d800e09120006400400080688800609620002b
:1032e800f06888006096200064004000006988004b
:1032f8002094200010698800209420006400400079
:1033080020698800a0d0200061fb07000080fa0037
:10331800000006000800fa006000b800008fbe0038
:103328006000b80020079800310798006008800006
:103338008000eb0069f507000002be00e09a20005b
:103348001000be0001f0a1000001be000400be0094
:10335800b9f5070022f50700008fbe00600880005d
:103368008000eb005df507000002be00e09a200037
:10337800640040001000be0001f0a1000001be0082
:103388000400be00acf5070015f5070020079800fb
:10339800310798001e007800000178008040eb009b
:1033a80010c0b30003f707002e009000000178005a
:1033b8008040eb0020c0b300fef607000080fa0052
:1033c800000006000000fa00881f78002001200095
:1033d800403a8800203a80000080a1000090a100b7
:1033e80000a0a100203a8800213a800000fe2f00aa
:1033f80000806000203a880060022000303a88008f
:10340800203a80000060a1000070a100203a8800e6
:1034180040a7a9001200200080072000a109200071
:103428003374200080497800814978008249780007
:103438001200200060042000710520002374200081
:10344800804978008149780082497800113a8000e3
:10345800000027008080600000002100808f50005d
:10346800faff3a00113a8000000220000080600054
:103478000000e000fbff32000080eb0060198800cc
:103488000080eb00401688004460a900100280000c
:103498000050a1000060a1000070a1001002880087
:1034a80081e0a90083e0a900f1f50700c8a2a900fe
:1034b800cca2a90041168000f0ff20000080600027
:1034c80040168800f0002000001688002000200028
:1034d800f041880010168000004078006f406000be
:1034e80040e8b700e1f707006df60700fef80700af
:1034f80002002000031224008040eb0010c0b3003b
:1035080014f807003ef60700050037000000000029
:103518000300370000000000010037000000000031
:10352800a0862000104078000004e0003f003a0028
:1035380044c8bf000004e00008003200e29a2000fe
:103548006000b8000089be00e09a200064014000d5
:103558006000b8000089be004468ef006dff0700f6
:10356800e09a20001000be006011b80098f407002f
:103578000000e00003003a00cdc2a900cde2a90096
:103588000f003700e09a20001000be0018c0b300fa
:103598006011b80090f407000000e00001003c0052
:1035a8000044eb000804e00003003200cdc2a9008b
:1035b800cde2a80002003700cdc2a800cde2a900e4
:1035c800e09a2000640040001000be006011b800be
:1035d8007ff407000000e00003003a00cd82a90054
:1035e800cda2a900ceff3700e09a20006400400079
:1035f8001000be0018c0b3006011b80076f40700d0
:103608000000e00001003c000044eb000804e0007a
:1036180003003200cd82a900cda2a800c0ff370068
:10362800cd82a800cda2a900bdff3700a08620004a
:1036380010407800e34f500031003a0044c8bf0002
:10364800e34f5000b1ff3200228b20006000b80029
:103658000089be00208b2000640140006000b80093
:103668000089be00208b2000680140006000b8007f
:103678000089be00628d20006000b8000089be008d
:10368800608d2000640140006000b8000089be0021
:10369800608d2000680140006000b8000089be000d
:1036a800e28820006000b8000089be00e0882000a1
:1036b800640140006000b8000089be00e29120006b
:1036c8006000b8000089be00e0912000640140005d
:1036d8006000b8000089be00229420006000b80095
:1036e8000089be0020942000640140006000b800fa
:1036f8000089be0030c0b30044e8b70088ff370037
:10370800a086200010407800e14f500081ff3a0069
:1037180044c8bf00e14f500080ff3200f0ff27008f
:10372800200f8800f0ff2700a00f8800228b2000c0
:103738006000b8000089be00208b200064014000b2
:103748006000b8000089be00208b2000680140009e
:103758006000b8000089be00628d20006000b800db
:103768000089be00608d2000640140006000b80040
:103778000089be00608d2000680140006000b8002c
:103788000089be00e28820006000b8000089be0001
:10379800e0882000640140006000b8000089be0095
:1037a800229420006000b8000089be002094200008
:1037b800640140006000b8000089be0010c0b3007a
:1037c80044e8b70056ff37000000fa00a086200042
:1037d80011c0b30001487800228b200000002000af
:1037e800011f24000089be00208b200064014000d6
:1037f800a0702d0031c223000089be00208b20005c
:10380800680140006000b8000089be00e28820001e
:10381800a099290091e923000089be00628d20004b
:1038280000002000011224000089be00608d2000e5
:10383800640140006000b8000089be00608d20006f
:10384800680140006000b8000089be00e0882000e0
:103858006401400000002000010a24000089be0025
:103868000080fa00000006003600f800809fbe00c5
:10387800829fbe00849fbe00869fbe003400f80071
:1038880000002000a00188000000fa008460a90060
:1038980010168000004078006f40600040e8b700d4
:1038a80002002000031224008040eb0010c0b30087
:1038b80028f70700a086200010407800e34f50004a
:1038c80005003200a086200010407800e14f50002b
:1038d80001003a0066fe07000080fa003400f90093
:1038e8004f03be004f02be004f01be004f00be0096
:1038f8003600f900004006003600f800809fbe0040
:10390800829fbe00849fbe00869fbe003400f800e0
:1039180000002000a00188000000fa008560a900ce
:1039280004fd07000080fa003400f9004f03be00d0
:103938004f02be004f01be004f00be003600f90026
:10394800004006003600f800809fbe00829fbe003f
:10395800849fbe00869fbe003400f800000020004f
:10396800a00188000000fa008580a900eefd07008c
:103978000080fa003400f9004f03be004f02be0079
:103988004f01be004f00be003600f900004006009f
:020000040000fa
:10399800440800000200000002000000ff000000d0
:1039a80046080000e0040000000000003a0800009b
:1039b8000a00000000000000260d000008000000ba
:1039c8000200000030303000207270006d000000ee
:1039d800000800003a00000000000000101d8000f0
:020000040000fa
:1039e800f03fb1000180b10006003500ee03090088
:1039f80000000000403fb1000180b100fbff3d0026
:103a08001000b000203fb00002003500008009001f
:083a18000000000000000600a0
:020000040000fa
:043a200000000000a2
:020000040000fa
:0200000401f009
:04000000ffff0000fe
:020000040000fa
:0200000401f009
:04000400ffff0000fa
:020000040000fa
:0200000401f009
:04000800ffff0000f6
:020000040000fa
:0200000401f009
:04000c008000000070
:020000040000fa
:0200000401f009
:0400100043000000a9
:020000040000fa
:0200000401f009
:040014005f00000089
:020000040000fa
:0200000401f009
:04001800970000004d
:020000040000fa
:0200000401f009
:04001c00dfff000002
:00000001FF
